:1000000002079A020006320022323202002E322209
:10001000FFFFFF0200B0FFFFFFFFFF020009FFFF2D
:10002000FFFFFF02000AFFFFFFFFFF02000E758ABD
:10003000F5758CF0C28DD25032FFFFFFFFFFFFFF3E
:10004000A5A5A5A5A5A5A5B585125A5AAAAA55552F
:10005000BB01EC0102FFFFFFFFFFFFFFFFFFFFFF00
:1000600049543835363620436F64652042617365E4
:100070002056312E35009011017402F0D22022FF5B
:10008000244A49472401494954383536363030032B
:10009000231409170810062412221513161820001D
:1000A0000000000000000000000000000000000050
:1000B000C0E0C0F0C083C082C0D075D010901110D5
:1000C000E024F0547F25E02477F582E43404F583BE
:1000D000E493FE740193CAEECAF91207BCD0D0D0E3
:1000E00082D083D0F0D0E032901107E054EFF0904E
:1000F00011037410F0D25222901107E054DFF090F7
:1001000011037420F0D25322901105E054FEF090B8
:1001100011017401F0229011017410F0D254229058
:1001200011027410F0D251229011027420F0D255B5
:1001300022901115E054FEF09011147401F02290F9
:100140001115E054FDF09011147402F02290111575
:10015000E054FBF09011147404F022901115E05457
:10016000F7F09011147408F022901115E054EFF09C
:100170009011147410F022901115E054DFF09011DA
:10018000147420F0D26B22901115E054BFF090113E
:10019000147440F022901115E0547FF09011147403
:1001A00080F022901119E054FEF09011187401F0C3
:1001B00022901119E054FDF09011187402F0229071
:1001C0001119E054FBF09011187404F022901119E9
:1001D000E054F7F09011187408F022901119E054CF
:1001E000EFF09011187410F022901119E054DFF024
:1001F0009011187420F022901119E054BFF0901162
:10020000187440F022901119E0547FF09011187486
:1002100080F02290111DE054FEF090111C7401F04A
:100220002290111DE054FDF090111C7402F02290F8
:10023000111DE054FBF090111C7404F02290111D6C
:10024000E054F7F090111C7408F02290111DE05456
:10025000EFF090111C7410F02290111DE054DFF0AB
:1002600090111C7420F02290111DE054BFF09011E9
:100270001C7440F02290111DE0547FF090111C740A
:1002800080F022901121E054FEF09011207401F0D2
:1002900022901121E054FDF09011207402F0229080
:1002A0001121E054FBF09011207404F022901121F0
:1002B000E054F7F09011207408F022901121E054DE
:1002C000EFF09011207410F022901121E054DFF033
:1002D0009011207420F022901121E054BFF0901171
:1002E000207440F022901121E0547FF0901120748E
:1002F00080F022901125E054FEF09011247401F05A
:1003000022901125E054FDF09011247402F0229007
:100310001125E054FBF09011247404F02290112573
:10032000E054F7F09011247408F022901125E05465
:10033000EFF09011247410F022901125E054DFF0BA
:100340009011247420F022901125E054BFF09011F8
:10035000247440F022901125E0547FF09011247411
:1003600080F022901129E054FEF09011287401F0E1
:1003700022901129E054FDF09011287402F022908F
:100380001129E054FBF09011287404F022901129F7
:10039000E054F7F09011287408F022901129E054ED
:1003A000EFF09011287410F022901129E054DFF042
:1003B0009011287420F022901129E054BFF0901180
:1003C000287440F022901129E0547FF09011287495
:1003D00080F02290112DE054FEF090112C7401F069
:1003E0002290112DE054FDF090112C7402F0229017
:1003F0001131E054FEF09011307401F0229011316F
:10040000E054FDF09011307402F022901131E0546C
:10041000FBF09011307404F022901131E054F7F0A9
:100420009011307408F022901131E054EFF09011E7
:10043000307410F022901131E054DFF090113074DC
:1004400020F022901131E054BFF09011307440F050
:1004500022901131E0547FF09011307480F022111D
:100460000011011102110311141118111C11201196
:10047000241128112C113000070007000700070085
:1004800007000700070007010800760007000701C2
:100490001600070007000700070007000700070114
:1004A0001F012800070007000700070007000700DA
:1004B000E800F8000700070131013F014D015B0131
:1004C0006901770187019501A301B101BF01CD0148
:1004D000DB01E901F7020502130221022F023D02AE
:1004E0004B02590267027502830291029F02AD021C
:1004F000BB02C902D702E502F30301030F031D0388
:100500002B03390347035503630371037F038D03F3
:100510009B03A903B703C503D303E100070007004A
:100520000700070007000703EF03FD040B0419048D
:1005300027043504430451900700ECF0A3EDF0CB01
:10054000EFCBEB75F006A424CDF582E43405F583FA
:10055000E493FE740193F5828E837480F09007001B
:10056000E0A3E0FFEB75F006A424D1F582E43405A6
:10057000F583E493FC740193F5828C83EFF090078C
:1005800000E0FFEB75F006A424CFF582E43405F516
:1005900083E493FC740193F5828C83EFF0EB75F0A8
:1005A00006A424CDF582E43405F583E493FE7401BA
:1005B00093F5828E83E4F0229016157440F090003B
:1005C000F5E004F0901601E06420F080F110421094
:1005D0004110401045104410431048104710461079
:1005E0004B104A1049104E104D104CC2AF00000085
:1005F000007581D09010337403F09016F47430F0CD
:100600009016F5740FF012064D12065B1206E59077
:100610000019EEF0A3EFF0E4FB7D20FF12067C90C2
:10062000001BEEF0A3EFF090001BE0FEA3E0FF90B4
:100630000019E06E7003A3E06F600990001874BBAE
:10064000F012070890001874ECF00220007820E8FF
:10065000C394D05005E4F60880F522900000AE83E4
:10066000C3EE94075005E4F0A380F3900800AE8336
:10067000C3EE94105005E4F0A380F322900702EF3C
:10068000F0EDFE7C00E42BFFEC3EFEE4A3F0A3F0D3
:10069000CDEFCDCCEECCEDF47002ECF4602EED702D
:1006A00003EC647F6006BC7F0CBD0109900703E486
:1006B00075F0FF800D8F828E83E493FD900703E435
:1006C0008DF01207A60FBF00010E80C48F828E83AB
:1006D000E493FF900703E48FF01207A6900703E06E
:1006E000FEA3E0FF22907F00E493FFA3E493FDEFDD
:1006F000FE7C00E42DFFEC3E900702F0A3EFF090AB
:100700000702E0FEA3E0FF2290000E7400F0A37445
:1007100075F090000EE0FEA3E0F5828E8374BBF0CE
:1007200090000EE475F0011207A690000EE0FEA303
:10073000E0F5828E837401F090000EE475F00112F2
:1007400007A690000EE0FEA3E0F5828E8374ECF025
:1007500090000EE475F0011207A690000EE0FEA3D3
:10076000E0F5828E837401F090000EE475F00112C2
:1007700007A690000EE0FEA3E0F5828E837402F0DF
:10078000901C5EF0C2AF9000F0E004F09000F1E049
:1007900004F09000F2E004F080EC787FE4F6D8FDFD
:1007A0007581CF0205EBC5F0F8A3E028F0C5F0F89D
:1007B000E582158270021583E038F0228A838982EF
:1007C000E473FFFFFFFFFFFFFFFFFFFFFFFFFFFFE0
:1007D000FFFFFFFFFFFFFFFFFFFFFFFFFFFFFFFF29
:1007E000FFFFFFFFFFFFFFFFFFFFFFFFFFFFFFFF19
:1007F000FFFFFFFFFFFFFFFFFFFFFFFFFFFFFFFF09
:10080000FFFFFFFFFFFFFFFFFFFFFFFFFFFFFFFFF8
:102000007581D0C0E0902006E0900080F0D0E00222
:10201000204D022200E493A3F8E493A34003F6804A
:1020200001F208DFF48029E493A3F85407240CC8D4
:10203000C333C4540F4420C8834004F4568001467F
:10204000F6DFE4800B01020408102040809031FE8E
:10205000E47E019360BCA3FF543F30E509541FFEAA
:10206000E493A360010ECF54C025E060A840B8E41B
:1020700093A3FAE493A3F8E493A3C8C582C8CAC59E
:1020800083CAF0A3C8C582C8CAC583CADFE9DEE730
:1020900080BE229000161221D0E0FF900016E004CE
:1020A000F0E0C394044002E4F0900017E014F02242
:1020B000900017E0C39404501E9000151221D0EF39
:1020C000F0900015E004F0E0C394044002E4F090C6
:1020D0000017E004F0D22322901606E020E3047FEC
:1020E0000180027F00EF7017901606E020E4047F65
:1020F0000180027F00EF70079001E004F0804E90B5
:102100001606E020E3047F0180027F00BF011890E3
:102110001606E020E4047F0180027F00EF70089043
:1021200001E07411F08026901606E020E3047F01A0
:1021300080027F00BF0116901606E020E4047F01B4
:1021400080027F00BF01069001E07405F09001E07D
:10215000E0FF9001E1E06F600DD20612216790016F
:10216000E0E09001E1F0229001E1E064017046902E
:1021700001E0E0B405079001E27405F0229001E06F
:10218000E0B403079001E27403F0229001E0E0B4B0
:1021900011079001E27411F0229001E0E0B41207FF
:1021A0009001E27412F0229001E0E0B4131B900160
:1021B000E27413F0229001E1E0B4050D9001E0E03B
:1021C000B401069001E27450F0222222222222223F
:1021D000E02410F582E43400F5832222F7FFFFFFAC
:1021E000FFFFFFFFFFFFFFFFA5A55A5AE7FFFFFF15
:1021F000FFFFFFFFFFFFFFFFA5A55A5A220264E180
:10220000122FFC122FC07581D075F7010075F701F0
:102210000075F7010075F70100901000E0547FF0A1
:10222000900EF3E004F0122DAA122DC5126FB41215
:102230002FC712554F9000F4E004F0122E6712469B
:1022400099122EC6123516EF60E812360380E3129B
:1022500066109001E2E024FD602624FE602724F44D
:10226000600F14601114601324C3701C1221CA8003
:10227000171221CB80121221CC800D1221CD8008A3
:102280001221CE80031221CFC206229007201223F2
:10229000B17E059007357405F07400122451E4FFF7
:1022A00074002FF582E43405F583E0B4FF050FEFE9
:1022B000B410EDEFB410069007207401F0901058A0
:1022C0007440F0900720E0FF22900721EFF0900784
:1022D000231223B1900721E06068900724B401091C
:1022E0007421F0A374DCF080077421F0A374ECF087
:1022F000E4900722F0900724E0FEA3E0F5828E83AD
:10230000E493FF900722E0FE2400F582E43405F513
:1023100083EFF074102EF582E43405F583E4F09039
:102320000722E004F0E0B410CC7E0590072F74057E
:10233000F0A37400F0A37410F07BF07DFFE4FF12B3
:1023400024057E059007357405F07410122451E4BD
:10235000900722F0900722E0FFC39410503C9007B2
:1023600021E0701074102FF582E43405F583E0F459
:1023700060208026900722E0FF2400F582E43405E7
:10238000F583E0FE74102FF582E43405F583E06EEA
:102390007008900722E004F080BA900722E0B410A1
:1023A00004A37401F09010587440F0900723E0FFEC
:1023B00022E4F090072B04F07BFC7DFFE4FF900704
:1023C00028EFF0A3EDF0A3EBF0122FC07C327D00DC
:1023D0007F041238DE900728E0900020F090072953
:1023E000E0900021F0E4900022F0FF90072BE0FE47
:1023F000EFC39E500D123200900021E02404F00F34
:1024000080E9022FC790072CEFF0A3EDF0A3EBF0CB
:10241000122FC07C337D007F041238DE90072CE041
:10242000900020F090072DE0900021F090072EE022
:10243000900022F090072FE0FFA3E090000CCFF077
:10244000A3EFF0900731E0900023F0123300022F49
:10245000C7A3F0A37410F07BF07DFFE4FF90073278
:10246000EFF0A3EDF0A3EBF0122FC07C347D007FE2
:10247000041238DE900732E0900020F0900733E03D
:10248000900021F0900734E0900022F0900735E0B2
:10249000FFA3E090000CCFF0A3EFF0900737E0909F
:1024A0000023F0123400022FC7E4FFEF75F003A4FD
:1024B000243CF582E43427F583E493FEEF75F003C2
:1024C000A4243AF582E43427122877EEF00FEFB413
:1024D0004FD922900738EEF0A3EFF0EB60121228EC
:1024E00084FFEDF4FEEF5EF01B1228844DF080EBCC
:1024F000229007A47401F0E49007A3F09007A3E0F2
:10250000FFC3940540030225C2E0FE75F009A42430
:1025100027F582E43428122877E0FDEE75F009A44F
:102520002429F582E43428F583E493FEED5EFEEF82
:1025300075F009A4242BF582E43428F583E4936E26
:102540007048122891706B9007A3E0FF75F009A402
:10255000242AF582E43428F583E493FE74602F1274
:10256000286FE0C39E9007A3E0401775F009A424EC
:102570002CF582E43428122854FEEF4E90005FF0D0
:10258000803012286DE004F08028122891601A90A3
:1025900007A3E075F009A4242EF582E4342812285C
:1025A00054F4FEEF5E90005FF09007A3E012286DF8
:1025B000E4F09007A4E025E0F09007A3E004F00227
:1025C00024FC22900034E070117FA01220B0D230A1
:1025D000C23F90016CE4F0A304F022900034E0705C
:1025E0000E7FA01220B0C230E490016CF0A3F02264
:1025F0009001E0E0B40103126436227F821220B021
:102600009000327401F0227F831220B0E4900032F7
:10261000F0227FA71220B0D20222126BEB7FA81209
:1026200020B0C20222D22422901606E04440F0C21A
:10263000225321F022901606E04480F0C223E49059
:102640000015F0900016F0900017F07F0490001035
:10265000E4F0A3DFFC2222D200C2AF90161A74402D
:10266000F090161BF0901602E054F390073AF07FBA
:102670002B7E6B124557208F2D90073AE0FF901666
:1026800002F0EF2408FFF090073AE0FE240CFD90E2
:102690001602F0EE2404F0F0EDF0EFF090073AE0CF
:1026A000901602F080D0A20092AF22D207C26C90A6
:1026B00001E0E06401603230040D1226F19001E087
:1026C000E06405702B8015900C95E0600578B47679
:1026D00005221226F19001E0E0B405147FF41245C2
:1026E000FA901601E04408F022901601E054F7F049
:1026F00022901606E04404F09001E37401F07F0A92
:102700001245FA901601E054F7F022C207D26C90FD
:1027100001E0E064056007901601E04408F02290B3
:102720001607E054FEF090003A7401F0229016076C
:10273000E04401F0E490003AF02216F00016F100B7
:1027400016F43016F50F16F60016F70016F80116F7
:10275000F90016FA011671001601BC1610001611C8
:10276000401612841613401614841615841616404B
:102770001617801672001602001618001619001699
:102780001A00161B00161C00161D00161E00161F30
:10279000001673001603B0162000162140162240C2
:1027A00016238416248416258416264016278016A0
:1027B0007400160400162800162900162A00162B8D
:1027C00000162C00162D00162E40162F40167500F0
:1027D0001605E016300016310016320016330016CA
:1027E00034001635401636841637841676C0160621
:1027F000DB163880163980163A40163B80163C802E
:10280000163D40163E40163F401677011607031648
:102810004040164184164240164340164440164537
:1028200040164640164740160308040021FD25F0D7
:10283000160310040025FB2607160640C8002628AC
:1028400021FC160680C800263521FC1603801900DD
:1028500026AB270BF583E493FE740193CAEECAF905
:1028600012762590005FE0FF9007A4E0222460F537
:1028700082E43400F58322F583E493FC740193F53C
:10288000828C8322900738E0FEA3E0F5828E83E0FD
:10289000229007A4E0FF90005FE05F227F10787035
:1028A00074FFF608DFFC22901D25E030E11AE49069
:1028B00007A4F09007A4E0FFC39410503874602F71
:1028C000F876FFE004F080EB7E1D7F10E49007A413
:1028D000F09007A4E0FDC39410501A8F828E83E01D
:1028E000FC74602DF8C6ECC60FBF00010E9007A463
:1028F000E004F080DC122905EF70031229AF901D6F
:10290000257401F022E4901605F0901606F07E166C
:102910007F30FD8F828E837484F00FBF00010E0D17
:10292000EDB410EF7E167F307C01E4F9EC60278F68
:10293000828E837440F00000901606E0B4FF0AEC2B
:10294000F4FB901605E06B600479018009122D916B
:10295000BF00010E80D6E9702C7C01EC60278F82CD
:102960008E837440F00000901605E0B4FF0AECF48A
:10297000FB901606E06B600479018009122D91BF6F
:1029800000010E80D6E9600D901D04E0902C2A9382
:10299000B40102E4F97E167F30E4FD8F828E83E479
:1029A000F00FBF00010E0DEDB410F0CFE9CF22E41F
:1029B0009007A6F09007A5F09007A5E0FCC394103F
:1029C0004003022A42E0FE2470F8E6FD74602EF80F
:1029D000E66DFE604F74602CF8E65E9007A9F07417
:1029E000702CF8E65E9007A8F09007A77401F090AD
:1029F00007A7E0FF60359007A9E05F60089007A691
:102A0000E0FF122A819007A7E0FFA3E05F60089033
:102A100007A6E0FF122A439007A6E004F0A3E025F2
:102A2000E0F080CB9007A6E02408F09007A5E0FF37
:102A30002460F8E6FE74702FF8C6EEC6E004F002DB
:102A400029B822201102800D122D74F583E4939091
:102A500007AAF0700B122D55F583E4939007AAF0A6
:102A60009007AAE0FFB4FF03D21122EFC394E8401D
:102A700007788AEFF6022B669007AAE0FF122ADA9F
:102A800022201112788AE675F0026005122D7780F7
:102A90001F122D58801A788AE66012122D74F58361
:102AA000E4939007AAF07010122D558003122D5553
:102AB000F583E4939007AAF09007AAE0FFB4FF0320
:102AC000C21122EFC394E84008122BE0E4788AF6A2
:102AD000229007AAE0FF122B2422EFC39401404367
:102AE000EFD394E7503DEFC394E0400F122D9E804A
:102AF00002C333D8FC788046F680217889E6C394F7
:102B0000065019E4FE74822EF8E6700B74822EF8DB
:102B1000EFF678890680050EEEB406E9300104D29E
:102B200008D22222EFC39401403BEFD394E7503503
:102B3000EFC394E04010122D9E8002C333D8FCF402
:102B4000788056F68018E4FE74822EF9E76F7009DB
:102B500074822EF8E4F67889160EEEB406EA300197
:102B600004D208D22222EF24189007ABF0122D4491
:102B70007007122D2AFF0220B0122D3FFD64017054
:102B8000287889E6705975F004EF122D31FF122A6A
:102B9000DA9007ABE0122D63FF122ADA9007ABE060
:102BA00075F004122D82022ADAED64026031122DD2
:102BB0003FFEB4031875F004EF122D317890F6EF54
:102BC000122D6308F6300117D20AD22222EEB40485
:102BD0000E122D2A789266F6300104D20BD22222F0
:102BE000EF2418FD122D44FC6401701D75F004EDF6
:102BF000122D31FF122B24ED122D63FF122B2475A1
:102C0000F004ED122D82022B24ECB4030DE4789035
:102C1000F608F6300104D20AD222221D22001D2518
:102C2000011D23011D240A1D22A000000000000038
:102C30000000000000000000000000000000000094
:102C40000000000000000000000000000000000084
:102C50000000000000000000000000000000000074
:102C60000000000000000000000000000000000064
:102C70000000000000000000000000000000000054
:102C80000000000000000000000000000000000044
:102C90000000000000000000000000000000000034
:102CA0000000000000000000000100000000000023
:102CB0000000000000000000000000000000000014
:102CC0000000000000000000000000000000000004
:102CD00000000000000000000000000000000000F4
:102CE00000000000000000000001000000000000E3
:102CF00000000000000000000000000000000000D4
:102D000000000000000000000001000000000000C2
:102D100000000000000000000001000000000000B2
:102D2000000100000001000101019007ABE075F017
:102D300004A424F2F582E5F03457F583E49322905D
:102D400007ABE0FF75F004A424F1F582E5F03457F9
:102D5000F583E4932275F002EFA424F1F582E5F007
:102D600034562275F004A424F3F582E5F03457F5C7
:102D700083E4932275F002EFA424F2F582E5F034A7
:102D80005622A424F4F582E5F03457F583E493FF4A
:102D9000228F828E837484F0EC25E0FC0F22EF54A6
:102DA0000FFEFF7401C8EFC80822122E041224A9D6
:102DB00012454112457712397A126C0DD2AAD2AF60
:102DC000000000002290016E7401F0A37490F012D4
:102DD00056CC0263E17820E8C394C05005E4F608BD
:102DE00080F522900000AE83C3EE94075005E4F016
:102DF000A380F3900800AE83C3EE94105005E4F076
:102E0000A380F3229020067484F0900EFFE044012A
:102E1000F0901901E054FE1234C4901938F0901962
:102E20003BF0902012E04420F0902016E04410F097
:102E3000022E33901B007406F0901B017401F0E425
:102E4000901B02F0901B03F0901B0CF0901B10F0F5
:102E5000901B14F0901B1874FFF0901B041234A602
:102E600090001D74C8F022E52A7004E52B605630EE
:102E70005218901C0BE030E4051248F98003124709
:102E800005C252901107E04410F030530E901C1C04
:102E9000E0FFC253901107E04420F0305405123790
:102EA00039C254305002C250305105C2511246311D
:102EB0003055B4C255900039E060AC12724BE490CA
:102EC0000039F080A22230060312224F3020051272
:102ED00028A7C220302102C22130220D124F5CE50A
:102EE00021540F7013C222800F30230C12502190F6
:102EF0000017E0B40102C2233024117B0C7D687FEF
:102F000001123BBCEF6005125039C2243025051276
:102F100024F1C225302802C228302A0F90094AE045
:102F200020E00612584D125B26C22A302B05126F84
:102F3000D7C22B302C1290094AE020E10B12658F8A
:102F4000EF6005126610C22C306805123166C26847
:102F5000306A05127185C26A306905126610C2694D
:102F6000900038E0601E9001E0E0B4051790003753
:102F7000E0FFE4FCFDFE1245949000397401F0E49A
:102F8000900038F0900270E0B48008126A74E49007
:102F90000270F0900270E0B48108126A96E4900228
:102FA00070F0302E1A901604E0547FF0E054BFF019
:102FB000122FC07C357D007F041238DE12350022CE
:102FC000C2AF0000000022D2AF0000000022900932
:102FD000EAE0FFA3E0FDA3E0FBA3E0900740F002DE
:102FE0003AEF221238A37417F0221238A37411F0AA
:102FF000222212452E1243BAE0E0FF2222D26A2298
:10300000E4FF90103E744FF090103D74FFF0E49098
:10301000103BF090103C74FEF090103F04F09010C4
:103020003C74FDF090103F7406F090103C74FEF07C
:1030300090103F04F090103C74FDF090103F740528
:10304000F07EFF90103FE05403FDBD02047F01803D
:1030500002DEF090103C74FEF090103F04F0E4901B
:10306000103EF090103DF022900902E06005E4FF70
:10307000023D65E490073BF090073BE0FDC3947F81
:103080005012E49007B5F0FBFF123A2490073BE0A2
:1030900004F080E42275400BE4F54175420190098B
:1030A000E1E0F543A3E0F544A3E0F545A3E0F546F0
:1030B000A3E0F547A3E0F548E0F549A3E0F54A9021
:1030C0001606E054BFF022C9EDC91238BC741DF0D9
:1030D000EF75F008A424DEF582E434341238C8EB2E
:1030E000F01238BC741CF0741EF0E96009900024E2
:1030F000EBF0D21A8002C21AD21922D2250270AF86
:10310000E4FF90103E744FF090103D74FFF0E49097
:10311000103BF090103C74FEF090103F04F09010C3
:103120003C74FDF090103F7404F090103C74FEF07D
:1031300090103F04F090103C74FDF090103F740527
:10314000F07EFF90103FE0540370047F018002DEA8
:10315000F290103C74FEF090103F04F0E490103EAA
:10316000F090103DF0227E097F217C027D0A12340E
:1031700099BF00010E8D828C8312349EBF00010E18
:103180007C027D06123499BF00010E8D828C831261
:10319000349EBF00010E7C027D08123499BF0001ED
:1031A0000E8D828C8312349EBF00010E7C027D1432
:1031B000123499BF00010E8D828C8312349EBF00A1
:1031C000010E7C027D2C123499BF00010E8D828C81
:1031D0008312349EBF00010E7C027D24123499BFFD
:1031E00000010E8D828C83E08F828E83F022124547
:1031F0002E124429EDF0F022D2682222222200FF72
:10320000E4900727F090103E744FF090103D74FF4B
:10321000F0E490103BF090103C74FEF090103F04EE
:10322000F090103C74FDF090103F7406F090103C4C
:1032300074FEF090103F04F090103C74FDF090107C
:103240003F7405F090103C74FEF090103F04F09035
:10325000103C74FDF090103F74D7F0900020E09087
:10326000103FF0900021E090103FF0900022E0909D
:10327000103FF090103C74FEF090103F04F090105E
:103280003C74FDF090103F7405F090103FE020E09A
:10329000F990103C74FEF090103F04F090103C74D4
:1032A000FDF090103F7404F090103C74FEF090100C
:1032B0003F04F090103C74FDF090103F7405F090C6
:1032C000103C74FEF090103F04F0E490103EF0903B
:1032D000103DF022EF700974101238D54410F0221E
:1032E000EFB4010974201238D54420F022EFB40263
:1032F0000D9011017440F0901105E04440F022FF60
:1033000090103E744FF090103D74FFF0E490103B2D
:10331000F090103C74FEF090103F04F090103C745C
:10332000FDF090103F7406F090103C74FEF0901089
:103330003F04F090103C74FDF090103F7405F09045
:10334000103C74FEF090103F04F090103C74FDF0BF
:1033500090103F74ADF0900020E090103FF090008E
:1033600021E090103FF0900022E090103FF090009C
:103370000CE0FEA3E0F5828E83E090103FF0900019
:1033800023E014F090000DE004F0900023E020E032
:103390003B90103C74FEF090103F04F090103C7491
:1033A000FDF090103F7405F090103FE020E0F990A0
:1033B0000023E0601790103C74FEF090103F04F082
:1033C00090103C74FDF090103F74ADF0900023E03D
:1033D000709C90103C74FEF090103F04F090103CF4
:1033E00074FDF090103F7404F090103C74FEF09067
:1033F000103F04F0E490103EF090103DF022FFFFEB
:1034000090103E744FF090103D74FFF0E490103B2C
:10341000F090103C74FEF090103F04F090103C745B
:10342000FDF090103F7405F090103FE020E0F9901F
:10343000103C74FEF090103F04F090103C74FDF0CE
:1034400090103F740BF0900020E090103FF090003F
:1034500021E090103FF0900022E090103FF0E4F067
:1034600090103FE0FF90000CE0FCA3E0F5828C831D
:10347000EFF0900023E014F090000DE004F09000D5
:1034800023E070DC90103C74FEF090103F04F0E4F8
:1034900090103EF090103DF0228D828C83A3E08F3F
:1034A000828E83F00F22F0901B05F0901B06F090A7
:1034B0001B07F0901B0DF0901B11F0901B15F09066
:1034C0001B19F022F0901904741FF0901906F09067
:1034D0001909F090190CF022170017041708170C9F
:1034E000170117051709170D17021706170A170EE8
:1034F000C2ABC28E00000000C28F22FFFFFFFFFFA1
:10350000E4901618F0901619F090200904F090003D
:10351000F5E004F080F890012DE0FC90012CE0FF34
:10352000ECFE9007A2EEF0A3EFF090001EE0FD90FD
:103530001603E030E7047E0180027E00EE70053065
:103540006D02C26D9001E0E0B40502C26DC3900748
:10355000A3E094059007A2E09400500A306D079014
:103560001604E054BFF0901606E030E6047F0180B8
:10357000027F00EF64017045901606E030E7047F9B
:103580000180027F00EF64017033E524702FE52590
:10359000702BE52A7027E52B7023E529701F90001A
:1035A0001DE0701920010E20300B90001E306D08B8
:1035B0007402F0800D90001E7401F08005E490000C
:1035C0001EF090001EE0CEEDCE6D6031E0D3940190
:1035D000500CE4901F03F0901F0474A3801190001E
:1035E0001EE0B40218901F0374FFF0E4901F04F073
:1035F000901F05E04401F09011037440F090001E0C
:10360000E0FF22901B0474FF1234A6901B00E044DC
:1036100080F0901B03E04410F0901B02E04480F027
:1036200090001EE06401703E9009FBE004F09011F0
:10363000147406F09011187401F090112074FFF0CA
:10364000901115E04406F0901119E04401F090113A
:1036500021E074FFF0901601E054FBF0E4901E03AB
:10366000F0758701806290001EE06402705A900934
:10367000FCE004F09011147480F0901115E0448087
:10368000F09011187401F0901119E04401F09011BC
:103690001C7480F090111DE04480F090190174803A
:1036A0001234C4901A01743FF0901C10E044A0F052
:1036B000901601E054FBF0E04404F0E054FBF0907D
:1036C0001E037401F07587029000F6E004F000001C
:1036D000000000009000F7E004F0901601E04404C0
:1036E000F0E4901E01F0901E02F0901E05F0901E76
:1036F00009F0901C10E0547FF0E4901115F0901147
:1037000019F090111DF0901121F0901129F0900006
:103710001EE064027022901B05E030E00690001D60
:103720007432F0901603E030E7047F0180027F00DE
:10373000EF7005306D02C26D229034DC1238B1E0BA
:10374000FF547060030237DEEF20E3030237FC9082
:1037500034D8E493FE740193FFF5828E83E030E366
:10376000047417F0229034DE1238B1E09007A2F012
:10377000301805E0FF0238329034DE1238B1E090A4
:1037800007A2F030195BC219E064FA70519000246E
:10379000E0B4F310301A067B50E4FD805B7BE87DDB
:1037A00001E48054900024E0B4E810301A067B0352
:1037B000E4FD80057BE67D01E4803D900024E0B4DB
:1037C000E60A301A377BF47D01E4802C900024E077
:1037D00064F47028301A25900026F0D21822022FA7
:1037E000E2900024E0B4FF149007A2E0FF64AA6016
:1037F0000BEF70087BF37D01FF1230C722EF700ED4
:10380000901105E054EFF09011017410F022EFB424
:10381000010E901105E054DFF09011017420F022A8
:10382000EFB4020D901105E054BFF0901101744007
:10383000F022900026E014601414603724027062B5
:10384000788BEFF6D21B9000267401F022EF6018FF
:10385000788BE630E40AEFC39480500C7F808008B8
:10386000EFC3948040027F7F788CEFF6900026743F
:1038700002F022EF6018788BE630E50AEFC39480FF
:10388000500C7F808008EFC3948040027F7FEFF46C
:1038900004788DF6E4900026F0300104D209D2229B
:1038A000C21B22EF75F008A424D8F582E43434F565
:1038B00083E493FE740193F5828E8322EF75F00802
:1038C000A424D8F582E43434F583E493FC740193A2
:1038D000F5828C8322901101F0901105E02290076F
:1038E000A3ECF0A3EDF0CBEFCB1239527480F09043
:1038F00007A3E0A3E0FFEB75F006A42438F582E40B
:10390000343912396B9007A3E0FFEB75F006A4245D
:1039100036F582E4343912396B123952E4F02290D0
:1039200016157440F09000F5E004F0901601E06484
:1039300020F080F110421041104010451044104317
:10394000104810471046104B104A1049104E104DA9
:10395000104CEB75F006A42434F582E43439F58379
:10396000E493FE740193F5828E8322F583E493FC45
:10397000740193F5828C83EFF022E4FFEF75F0037E
:10398000A4243EF582E43443F583E493FEEF75F01E
:1039900003A4243CF582E434431243BAEEF00FEF63
:1039A000B425D99011037410F0901107E04410F081
:1039B00022EF1244111243BAE04402F0000000E08A
:1039C00054FDF022E4FEEF75F016A424EAF582E43B
:1039D00034421243BAE05403FDBD030B12440112FA
:1039E00043BAE020E0010ECFEECF22EF700A90162E
:1039F0001CE0FF90161B801AEFB4010A901622E01B
:103A0000FF901621800CEFB4020B90163FE0FF9060
:103A1000163EE05FFEEE54C070047E018002E4FEBC
:103A2000CFEECF229007B21243C7E04402F09007D6
:103A3000B212445B7418F09007B5E004124475129A
:103A40004468EEF09007B21244461243BAEFF0EE2B
:103A500012443A1243BAEBF0E49007B7F09007B67D
:103A6000F09007B5E0D3940040189007B7E0941F9A
:103A700050101244BCFF1244361243BAEF12449E57
:103A800080DF9007B2E01244111243F11244E812B1
:103A90004557E4FF208F529007B2E0FE1244021215
:103AA00043BAE0FD547C7041ED30E1057F01023AFC
:103AB000E9EE1243AFE030E4DBE49007B7F09007A3
:103AC000B5E0D3940040189007B7E094205010124E
:103AD00044BCFE1244361243BAEE12449E80DF12FA
:103AE00043ABE04410F0023A941243ABE4F022906E
:103AF000073DEFF0A3EDF090073DE0FF1243AF125A
:103B000043FE1243F174FEF090073D1244AE12439F
:103B1000BAE04402F090073EE025E0FEEF12444F89
:103B20001243BAEEF090073DE0FE12443A1243BA57
:103B300012440E1243F11244E8124557E4FEFFFD11
:103B4000208F2E90073DE01244021243BAE0FD544C
:103B50007C6008900991E004F08016ED30E70A904F
:103B60000992E004F07F018008900990E004F08061
:103B7000CFEF602E90099312453A124483E054FB34
:103B8000F0001243E51244FE90073DE0FFA3E0FD84
:103B9000900740E0FB123BBCCEEFCE900996EEF0D2
:103BA000800B90099412453AE0FF1239B1900995C3
:103BB00012453A1243AEE4F0CFEECF229007A312A3
:103BC00043C7E04402F09007A312445B7418F0125C
:103BD000441DEB1245124401FF9007A312444D12FD
:103BE00043BAEF12440F1243F11244E8124557E46E
:103BF000FFFE308F03023C7F9009A312451AFD128D
:103C00004402124429E09007A4F0E0FC547C600ECA
:103C10009009A4E004F09009A0ECF0023C7FED12C2
:103C200043AFE05410FD9007A4E054024D60C390F0
:103C300009A512451A75F016A424EEF582E4344263
:103C40001243BAE0543FFD9009A1F0ED601B9007CC
:103C5000A3124439124429E0FC74802FF582E43425
:103C600004F583ECF00F1D80E29007A31243AEE051
:103C70004410F09007A4E020E103023BF27E01EE45
:103C8000700A9009A612451AFF1239B19007A312C3
:103C900043AEE4F0CFEECF22900741EFF0E0FF1209
:103CA000440212446874FE1244CB1243F174F7F0DC
:103CB0009007411244AE124468E054FDF0CEEDCEC0
:103CC000EE25E0FEEF12444F1243BAEEF0900741AA
:103CD000E0FE1244DC1243BA12440E1243F1744463
:103CE000F07F197EB2124557E4FF208F1D900741E7
:103CF000E01244021243BAE0900742F0E0FE547C26
:103D000060028006EE30E1E27F012212440112449B
:103D10002974FEF0EF1244B0124429E054FD12441D
:103D2000CB12442974F7F0ED25E04401FDEF124475
:103D30004F124429EDF0EF1244111243BA7444F0CB
:103D4000E4FD208F14124401124429E0FE547C60EB
:103D5000028006EE30E1EB7D0112441DE09004800C
:103D6000F0CFEDCF22900743EFF0E4900745F090BD
:103D70000744F0900744E0FDD3947F502D90074313
:103D8000E0FFE4FB123C98EF6018900744E0FFA3CB
:103D9000E02480F582E43404F583EFF0900745E0F9
:103DA00004F0900744E004F080C9229007AEEFF0E1
:103DB000E49007B5F09007B2E0FFA3E09007B6CF1C
:103DC000F0A3EFF09007AE1243C9E054FDF0900766
:103DD000AE1244461243BA1244D91243BAEBF090E1
:103DE00007B1E0FFC3940340589007AEE0FE1243D2
:103DF000AF7418F0EE1244771243BAEFF0E4FF907C
:103E000007B1E0FEEFC39E50299007B6E0FCA3E0A7
:103E1000F5828C83E0FE9007AE1244391243BAEE6D
:103E2000F09007B7E004F070069007B6E004F00FDA
:103E300080CD9007AEE01244111243F17455F0802A
:103E4000529007B6E0FEA3E0FFF5828E83E0FD907E
:103E500007AEE0F9124477F583E493FA740193FB1B
:103E6000F5828A83EDF09007B1E0B4021C8F828E58
:103E700083A3E0FF9007AEE0FE8B828A83EF1244BB
:103E80000F1243F1744CF0800AE91244111243F10D
:103E90007448F07F197EB2124557208F1F9007AEED
:103EA000E01244021243F1E09007B4F0E0FF547CCA
:103EB000700AEF30E1E49007B57401F09007AEE0CE
:103EC0001244CD1243F1E4F09007B5E0FF229007D1
:103ED000AEEFF0E49007B5F09007B2E0FFA3E090FA
:103EE00007B8CFF0A3EFF09007AE1243C9E054FD3E
:103EF0001245124401FF9007AE12444D1243BA120C
:103F000044D91243BAEBF09007B1E0FFC3940340E9
:103F10000B1244101243BA7455F0801DEF9007AE97
:103F2000B4020CE01244111243F1744CF0800AE028
:103F30001244111243F17448F0E49007B7F0900C6A
:103F4000A0F07F197EB2124557308F0302402890AF
:103F500007AEE0FF1244021243BAE09007B4F0E06B
:103F6000FE547C60030240289007B1E0FDC3940337
:103F7000500302401AEE20E70302401A9007B7E010
:103F800070391244761243F1E09007BAF0E0FF90E6
:103F900007B8E0FAA3E0F5828A83EFF09007B7E074
:103FA00004F09007B9E004F070069007B8E004F060
:103FB0001244F0EFF0900CA0E004F0ED24FEFF902E
:103FC00007B7E06F700E9007AEE01244111243F194
:103FD000E04420F09007AEE0FF12443A1243BAE00A
:103FE0009007BAF0E0FE9007B8E0FCA3E0F5828C01
:103FF00083EE1244001243BA7480F09007B9E004D3
:10400000F070069007B8E004F09007B7E004F012F3
:1040100044F0EEF0900CA0E004F09007B4E020E152
:1040200003023F49A37401F09007B5E06041900797
:10403000B1E0FFC39403503F9007AEE0FE12447717
:104040001243BAE0FD9007B8E0FAA3E0FBF5828ADC
:1040500083EDF0EFB40220EE75F016A424E4F582AF
:10406000E434421243F1E08B828A83A3F08008900B
:1040700007AEE0FF1239B19007AEE01244CD124313
:10408000F1E4F09007B5E0FF229007461243C7E045
:104090004402F090074612445B7418F090074AE01F
:1040A0002402124475124468EE124512FF9007462E
:1040B00012444D1243BAEFF0EE12443A124490EB20
:1040C000F0900749E08D828C83F0E490074CF090EB
:1040D000074BF090074AE0D39400402290074CE051
:1040E000941E501A90074B1244BFFF90074612448B
:1040F000391243BAEFF090074A1244A280D59007D4
:1041000046E01244111243F11244E8124557E4FF0D
:10411000208F5F900746E0FE1244021243BAE0FD92
:10412000547C704EED30E1057F01024172EE124386
:10413000AFE030E4DBE490074CF090074AE0D39422
:1041400000402290074CE09420501A90074B1244F4
:10415000BFFE9007461244391243BAEEF090074A68
:104160001244A280D59007461243AEE04410F002FC
:1041700041109007461243AEE4F02290074DEFF055
:10418000A3EDF090074DE0FF1243AF1243FE124340
:10419000F174FEF090074D1244AE1243BAE04402AF
:1041A000F090074EE025E0FEEF12444F1243BAEEC6
:1041B000F090074DE0FE12443A1243BA12440E1238
:1041C00043F11244E8124557E4FFFEEFC394025056
:1041D0003E208F3B90074DE01244021243BAE0901C
:1041E0000752F0E0FD547C7026ED30E7DEEF701CE6
:1041F000900750E0FD90074DE0FC12443A1244292C
:10420000EDF0EC1244021243BA7480F00F80BCEF60
:1042100064027027208F2490074D124483E054FBE2
:10422000F0001243E51244FE90074DE0FFA3E0FDCD
:10423000900751E0FB123BBCCEEFCE90074D1243EE
:10424000AEE4F0CFEECF227B0112450B1224D37FD8
:10425000197EB2124557E4900754F0208F227B025A
:1042600012450B1224D39043261243F3E0900753D8
:10427000F0E0FF20E20AEF30E5E19007547401F02E
:10428000900754E0640170327E167F017B037D014C
:104290001224D3800EEF60179043221243F3E09074
:1042A0000755F090432A1243F3E0541FFF80E67E47
:1042B000167F017B047D011224D30234F0E49007C1
:1042C00056F01245221243BAE0FE542660F412451D
:1042D000221243BAEEF0CFEECF221C011C101C03B9
:1042E0001C021C041C051C001C061C0A1C451C4648
:1042F0001C121C211C141C131C151C161C111C1731
:104300001C1B1C471C481C2A1C321C2C1C2B1C2D43
:104310001C2E1C291C2F1C311C491C4A1C101C085B
:104320001C3F1C091C101C0B1C0C1C5F1C211C19A5
:104330001C441C1A1C211C1C1C1D1C631C22041C5C
:1043400023021C24031C25031C26191C27C91C2816
:10435000011C33001C40101C41101C42101C103169
:104360001C21111C32111C0C021C1D001C53001CB2
:1043700000FF1C0BFF1C08681C3FE61C19001C44B6
:10438000001C50001C54001C34001C60391C612CA3
:104390001C5E001C62001C64001C01021C12021C3A
:1043A0002A021C01001C12001C2A009007B2E075B2
:1043B000F016A424ECF582E43442F583E493FC7413
:1043C0000193F5828C8322EFF0E0FF75F016A424B0
:1043D000E6F582E43442F583E493F8740193F582C0
:1043E000888374FEF0EF75F016A424DCF582E434C3
:1043F00042F583E493FE740193F5828E832274F771
:10440000F0EF75F016A424E6F582E4344222EBF0D6
:10441000EE75F016A424DAF582E4344222EF75F04A
:1044200016A424E2F582E43442F583E493FA74019D
:1044300093F5828A83229007B2E075F016A424E8EF
:10444000F582E4344222CFEDCFEF25E0FFE0FE75A8
:10445000F016A424DEF582E4344222E0FF75F01663
:10446000A424ECF582E43442F583E493F8740193D8
:10447000F582888322FEEF75F016A424E2F582E42B
:10448000344222E0FF75F016A424EAF582E43442B7
:10449000F583E493FC740193FDF5828C8322F09004
:1044A00007B5E014F0A3E004F0A3E004F022E0FF7D
:1044B00075F016A424DCF582E43442229007B6E0BD
:1044C0002400F582E43404F583E022F0EF75F01661
:1044D000A424ECF582E4344222EFF0EE75F016A449
:1044E00024E0F582E4344222745CF07F197EB2222B
:1044F000900CA0E024A1F582E4340CF58322E05472
:10450000FDF08D828C83E04404F0227E167F017DD5
:104510000122F0CFEDCFEF25E022E004F09007A3D9
:10452000E022EFC454F02426F582E4344322EFC4A1
:1045300054F02422F582E4344322E004F090073D55
:1045400022C28CC28EC2A9C2ABC28DC28F75891124
:10455000758AF5758CF0229007BBEEF0A3EFF0C2E0
:10456000ABC28E000000009007BBE0F58DE0A3E039
:10457000F58BC28FD28E22E4901F02F0901F03F0C1
:10458000901F0474A3F09011027410F0901106E0D3
:104590004410F0229007A31275F39007A31246F976
:1045A000780F1275E09007A71275F39007A7A3A3E1
:1045B000A3E0FFE4CBEFCB1246F678081275CDE40A
:1045C000CAEFCA1246F678101275CDE4901F0AF0B1
:1045D000901F0EEFF0CFEACF901F0BEFF0CFEBCF95
:1045E000901F0CEBF0901F05E04404F09011027452
:1045F00020F0901106E04420F022A2AF9200C2AF5A
:10460000EF600FE4FEE490200BF00EEEB442F61FD4
:1046100080EEA20092AF22C2ABEF6012758DFD75E5
:104620008B04D28EC28F308FFDC28F1F80EBD2AB36
:104630002290001EE0B40203D24F220530E530651F
:1046400031FF85303130E002D248EF30E14AD249C3
:104650000532E532C39405403FD24A74FB2532F55A
:10466000320533E5336534FF85333430E113D24B03
:104670000535E535C394054008D24D74FB2535F565
:1046800035EF30E213D24C0536E536C394054008C9
:10469000D24E74FB2536F53622E52960489007A2F4
:1046A0007401F0E4A3F09007A2E0FF6038205235D7
:1046B000E5295F60239007A3E025E024E6F582E486
:1046C0003446F583E493FE740193CAEECAF9127678
:1046D000259007A2E0F452299007A2E025E0F0A37C
:1046E000E004F080C12230FB55A5562A56342FFD38
:1046F00031F8566431FB9007A7E0FCA3E0FDA3E08E
:10470000FEA3E0FF22A2AF9200C2AF78A176F0E450
:104710009007A2F0C2707F01FE124557308F03024E
:1047200048EAE49007A4F0208F1490432612546FB7
:10473000F5828E83E09007A4F0E0542660E99007AC
:10474000A4E090432612542F30E20778A176F702B6
:1047500048EAEF20E1030248D030E31378A1E6B441
:10476000F00976F37FF3124ECED270D27180181218
:10477000546CFFF5828E83E09007A3F08F828E83C6
:10478000E09007A3F0C27178A1E62410B4070040BE
:10479000030248C29047A275F003A4C58325F0C563
:1047A00083730247B70247EE0247EE0248140248FD
:1047B000290248480248729007A2E07009A3E090DD
:1047C0000000F00248429007A3E0900001F0E07082
:1047D00011900000E0FF124ECE900000E078A1F6AC
:1047E000800478A176F7E49007A2F00248D0900008
:1047F00008E0FEA3E0F5828E83E4939007A3F01215
:10480000542BF0900009E004F07006900008E004DA
:10481000F00248D090000AE0F8E69007A312542A6C
:10482000F0D27090000A0248BD1254B69007A2E080
:10483000B40309E552B40104E67888F690000AE072
:1048400004F09007A20248BD9007A2E0700BA3E01D
:10485000900002F09007A280649007A3E09000030C
:10486000F0540FFF124F13E49007A2F078A176F0F6
:10487000805E307122900002E0540FFFBF0A0A9060
:1048800007A2E0FF12515F802B90000A1254D01251
:1048900031EE90000A801A900002E0540FFFBF0A28
:1048A0000D9007A2E0FFA3E0FD1250A58006125470
:1048B000B6E004F09007A2E0D394075013E004F0B0
:1048C000800E30710B12546CF5828E8374FAF0F006
:1048D0009007A4E020E50302471C307009901606FB
:1048E000E04440F0C27078A176F0308F05E4FF120A
:1048F00039B1A20092AF0234F0A2AF9200C2AFE48D
:1049000078A3F67F197EB2124557308F03024EBE50
:10491000E49007A3F0208F1490432612546FF58281
:104920008E83E09007A3F0E0542660E99007A3E0AF
:10493000FF90432612543030E20778A37602024EED
:10494000BEEF20E103024EB030E304D270801812B3
:10495000546CFFF5828E83E09007A2F08F828E83E5
:10496000E09007A2F0C27078A3E61275FF499B00A1
:104970004B15014B64034B2E9E4CFEB24D30B34D94
:1049800049B44D73B54DC0B64B88C04C1AC34DDE0B
:10499000D04E5EDA4CDEF000004EA978A37601908E
:1049A00007A2E0FFD394845073EF948150149000D9
:1049B00014E02400FEE434019007A9F0A3CEF00235
:1049C0004EB09007A2E0FFB482117C017D6C90078D
:1049D000A97401F0A3746CF0024EB0EFB483117EA1
:1049E000007F329007A97400F0A37432F0024EB039
:1049F0009007A2E064846003024EB0900016E024A9
:104A000010F582E43400AF829007A9F0A3EFF01212
:104A10002093901606E04480F0024EB09007A2E08A
:104A2000FFB49E0778A3769E024EB0EFB4EC14124A
:104A300056CC7E007FC09007A97400F0A374C0F02C
:104A4000024EB09007A2E0FFB4ED08D2037C007DD7
:104A500081800AEFB4EE13C2037E007F819007A924
:104A60007400F0A37481F0024EB09007A2E0FFB48E
:104A7000EF13D22E7C007D749007A97400F0A3740C
:104A800074F0024EB0EFB4B20778A376B2024EB023
:104A90009007A2E0FFB4B30778A376B3024EB0EF5D
:104AA000B4B40778A376B4024EB0EFB4B50778A3D8
:104AB00076B5024EB0EFB4B60778A376B6024EB024
:104AC000EFB4C00778A376C0024EB0EFB4C1109027
:104AD000003B7401F090094AE04401F0024EB090AE
:104AE00007A2E0B4C21CE49007ABF012584D900747
:104AF000ABE004F0E0C3940340F1E490003BF0022B
:104B00004C109007A2E078A3B4D00576D0024EB046
:104B10007602024EB030700612541BF0800512541B
:104B20003EEFF012548B704A1254AF024EB078A38D
:104B30007603E49007A6F09007A2E0FFB406069083
:104B40000038024DBAEF64086003024EB09007A629
:104B50007408F07E007F379007A97400F0A37437C3
:104B6000F0024EB030700E12541B12548A700312B1
:104B700054AF024EB09007A6E064086003024EB046
:104B800012543EEFF0024EB078A376C3E49007A42F
:104B9000F090094AE04401F09007A2E0FFB401164A
:104BA0009007A57401F07C0C7D009007A9740CF0AF
:104BB000A37400F0805AEFB4020C9007A57402F0C1
:104BC0007E0C7F0180129007A2E0FFB403169007CD
:104BD000A57403F07C0C7D019007A9740CF0A374FC
:104BE00001F0802CEFB40419126C2A9007A574040C
:104BF000F07E087F009007A97408F0A37400F0808D
:104C00000F9007A2E0B405089007A5740412545C45
:104C100090094AE054FEF0024EB030700E12541B60
:104C200012548A70031254AF024EB09007A5E0FFF1
:104C300064027039900C00F09007A4E0FE700790B9
:104C400007A2E0FD803CEEB4010280429007A4E0A0
:104C500064026003024CD89007A2E0900C91F0909F
:104C60000C937402F0900C007420F0806BEF6403DE
:104C70007066900C00F09007A4E0FF700D9007A202
:104C8000E0FEC313900C90F0804EEFB4010A900741
:104C9000A2E0900C92F080409007A4E0FFB4020ADA
:104CA0009007A2E0900C91F0802E9007A2E0FE12F7
:104CB0005443EE12548A70031254AF900C91E024C6
:104CC00002FDE433FCED6F7001EC700C900C00748D
:104CD00010F0900C937401F09007A4024EA478A3F6
:104CE00076019007A2E064126003024EB07E0E7F50
:104CF000009007A9740EF0A37400F0024EB0900764
:104D0000A2E0FF7007900033F0024EB0EFB401064E
:104D1000900033024DBAEFB40205900033804EEF9D
:104D200064036003024EB09000337404F0024EB08E
:104D30009007A2E0FF7005C26D024EB0EF64016003
:104D400003024EB0D26D024EB09007A2E0FFB40154
:104D50000590094B8064EFB40208E490094BF0021F
:104D60004EB0EF64036003024EB090094B7402F042
:104D7000024EB09007A2E0701A900034F090003517
:104D8000E064016003024EB01225C3E4900035F0E8
:104D9000024EB09007A2E064016003024EB09000A2
:104DA00034E06003024EB0203003024EB0A2303334
:104DB000900035F01225DB9000347401F0024EB003
:104DC0009007A2E0FF7007900036F0024EB0EF644B
:104DD000016003024EB090003604F0024EB078A39A
:104DE00076DA9007A2E0FF9007A8F0B40103024E24
:104DF000B0EFB402067E027F50800C9007A2E0FF65
:104E0000B4030F7C027D50125461E49007A7F002B6
:104E10004EB0EFB4040AE49007A712545C024EB0FF
:104E20009007A2E0FFB40511E49007A7F09007A94E
:104E30007402F0A3E4F0024EB0EF640670729007C3
:104E4000A7F09007A9F0A3F0901F01E0FF7420F0F5
:104E5000901F077401F0901F01EFF0024EB0307008
:104E60000D12541B12548A70031254AF80429007E3
:104E7000A8E0FFB4021D125476E09007A2F0E0FE15
:104E8000904322E493FC740193F5828C83EEF0EE60
:104E9000F0800EEFB4030A9007A2E0FF125476EF01
:104EA000F09007A7E004F080077DFAE4FF1231EEEE
:104EB0009007A3E020E50302490AE478A3F6308FC7
:104EC00005E4FF1239B11234F0A20092AF22EF24B0
:104ED0000E601914602114602024FE601E240570E9
:104EE000319000087453F0A374FDF0229000087410
:104EF00053F0A37434F0228016800A900003E0542B
:104F00000FFFBF020790000A7450F022BF03031284
:104F100054D722EF24FE602B14602C24FB602F2436
:104F2000077038901606E04440F0C2225321F07F0B
:104F30000C7840E4F608DFFC1254D7901606E054D3
:104F4000BFF0221254D72290000A7450F022900031
:104F500002E054037003D20122C2012220010302A5
:104F60005020901606E030E6047F0180027F00EFBB
:104F700064016003025020901606E030E7047F01D0
:104F800080027F00EF640160030250207F03FE3047
:104F9000081B75400BF541754201EEC3940850099A
:104FA00074801254920F0E80F1C208806C30093167
:104FB000754006E4F541754202EEC39403501EEEBF
:104FC0007009748B2EF8E654078005748B2EF8E672
:104FD000125495748B2EF8E4F60F0E80DCC2098013
:104FE00038300A1C754005E4F541754203EEC39460
:104FF00002500974901254920F0E80F1C20A801967
:10500000300B16754004E4F5417542047892E6FED3
:1050100074402FF8C6EEC6C20B901606E054BFF0DF
:1050200022901606E030E7047F0180027F00BF0176
:1050300007901606E0547FF022900480E0FF3001D4
:1050400057B40116E49007A3F012549E74801254D2
:10505000C4B408F5D208D222803EEFB40216E49020
:1050600007A3F012549E748B1254C4B403F5D209F2
:10507000D2228024EFB40311900481E07890F6A34B
:10508000E008F6D20AD222800FEFB4040B9004811C
:10509000E07892F6D20BD222EFB40A08900481E0B5
:1050A000FF1220B022EF24FD500D6014146017147D
:1050B000605214605D806EED6003D20F22C20F2239
:1050C0009000E5EDF022EDB4800F9000E47401F063
:1050D0009000E5E09000E0F022ED9000E4B4C00C18
:1050E0007402F09000E5E09000E1F0227403F0ED2E
:1050F000FE9000E5E07C002400FFEC3E9000E2F032
:10510000A3EFF022200F0BEDFF9000E6E4F0A3EFF9
:10511000F022200F10EDFE9000E7E02400F0900058
:10512000E6E03EF0229000E4E0B4010A9000E0E006
:10513000F8C6EDC6800E9000E4E0B4020B9000E1EA
:10514000E0F8EDF6E004F0229000E2125446EDF0B3
:105150009000E3E004F070069000E2E004F022EF3B
:1051600014600D0470219000E6E0A3E02402800C9E
:105170009000E7E024029000E6E034009007A5F0FC
:10518000E0FDE4FF0231EE9000E4E0B4010E900097
:10519000E01254D01231EE9000E080139000E4E071
:1051A000B402109000E11254D01231EE9000E1E010
:1051B00004F0229000E212544F1231EE9000E3E02E
:1051C00004F070069000E2E004F022EF14600C148A
:1051D000600F240270157D0EE48002E4FDFF0231B1
:1051E000EE90092E7409F0A37421F090092E125448
:1051F0004F1231EE90092FE004F0700690092EE076
:1052000004F022EF14600C14600F240270157D0E60
:10521000E48002E4FDFF0231EE90093E7409F0A340
:105220007430F090093E12544F1231EE90093FE075
:1052300004F0700690093EE004F022EF24FD5004D3
:105240006008807B900912EDF022900913EDF0E0E8
:10525000700A9009107409F0A37408F0900913E023
:10526000B4010B9009107409F0A37400F0229009A6
:1052700013E0B4020B9009107409F0A3740AF02231
:10528000900913E0B4030B9009107409F0A374079C
:10529000F022900913E0B4040B9009107409F0A3F4
:1052A0007405F022900913E0B405028007900913F9
:1052B000E0B406279009107409F0A37402F022905C
:1052C0000912E06016900910125446EDF090091191
:1052D000E004F07006900910E004F022EF14602E54
:1052E00014602F24027035900913E070089007575E
:1052F0007405F08012900913E0900757B40205740A
:1053000007F080037404F0900757E0FD8009E4FD86
:105310008006900913E0FDE4FF0231EE90091012BF
:10532000544F1231EE900911E004F070069009100C
:10533000E004F02205010906A1018501050719E035
:1053400029E7150025017501950881029501750869
:10535000810395057501050819012905910295013B
:105360007503910395067508150025650507190055
:1053700029DD8100C005010902A10185020901A101
:1053800000050919012905150025019505750181FB
:1053900002950175038103050109300931093815AA
:1053A00081257F750895038106050C95010A380251
:1053B0008106C0C0050C0901A101850319002A3C22
:1053C000021500263C02950175108100C0050109F7
:1053D0000CA10185041500250109C69501750181FF
:1053E0000675078103C00600FF0901A101850909AF
:1053F00001150026FF0075089504B100C01E0000CD
:1054000001C900F200F3000E00F4000400F500F6FC
:1054100000628532000100000000009007A9E0FE54
:10542000A3E0F5828E83E09007A2F0E0904322FF94
:10543000E493FC740193F5828C83EFF0EF229007E4
:10544000A2E0FF9007A9E0FCA3E0F5828C8322E0B4
:10545000FEA3E0F5828E83E0FDE4FF22F07E027F72
:10546000509007A97402F0A37450F022904322E4F4
:1054700093FE740193229007A7E0FE9007A9E0FC39
:10548000A3E02EF582E43CF58322F09007AAE00425
:10549000F0222EF8E6FD74402FF8C6EDC6229007E4
:1054A000A3E0FE2481F582E43404F583E0FD22903C
:1054B00007A9E004F0229007A3E0FF90000AE0F8BB
:1054C000C6EFC6222EF8EDF69007A3E004F0E02226
:1054D000E0F8E6FDE4FF2290000A7440F022900E0E
:1054E000FFE030E01A900EFEE0FE04F074002E1291
:1054F000558FEFF0900EFEE0C394F04002E4F022EE
:10550000900758EEF0A3EFF0900EFFE030E01E9011
:105510000758E0A3E01255881255974002E4F09036
:105520000758E01255881255974002E4F022E490A3
:105530000EFEF0125589E4F0900EFEE004F0E0B4A7
:10554000FEF1E4900EFEF0900EFFE0547FF022900A
:105550000EFFE0FFC4131313540130E00312552E65
:105560002290075AEBF0A3EAF0A3E9F022E49016A8
:1055700015F075984053C8F043C830F5C975CBFF96
:1055800075CAFBD2CAD29922FF900EFEE02400F524
:1055900082E4340EF58322EFF0900EFEE0FF04F07B
:1055A000EFC394F022D22A90001DE06003E014F0D3
:1055B000900C93E06073E064017032900C90E0FD19
:1055C000900C91E09007A7F07A0C7901A37401F098
:1055D000A3740CF0A37401F0900C92E0FB7F011215
:1055E0006009EF900C0060397401F08037900C93E3
:1055F000E06402702F900C90E0FD900C92E0FB9024
:105600000C91E09007B1F07E0CA3740CF0A3740130
:10561000F07F01123ECEEF900C0060057402F08026
:105620000374FFF0E4900C93F0221220D8900AB398
:105630007401F022900AB0E0B4010B900AB1740139
:10564000F0E4900AB0F0D22B303A12900C94E07053
:105650000C7F08FE125F66900C947401F09009F1C3
:10566000E004F022203F02D269900AB4E020E10673
:10567000900AB57401F0306C3D9001E0E064057073
:10568000309001F0E0FF04F0EFD39405401B90014F
:10569000E3E0B4011490094BE0701B901606E0544F
:1056A000FBF0E49001E3F0800D9001E3E0700780EF
:1056B00001E49001F0F090094BE0B4010C9001E29C
:1056C000E0B45005E490094BF0D22C227F087C0016
:1056D0007DC0E4FEEEC39F5017EE90E80093FB8D73
:1056E000828C83ED2EF582E43CF583EBF00E80E4B2
:1056F00022000000000000E4000000E000000000C4
:105700000014001E001D00040035002B0029003984
:105710000008002000060007003BF23CF33DF43A8D
:10572000F1000000000000000000000000E30000A5
:10573000001500210019000900220017000A0005C9
:10574000001A001F001B0016003E003FF640F74104
:10575000F80C00250036000E0000003000000000AC
:10576000000000000000000000FFFF00000000003B
:10577000001800240010000D0023001C000B001175
:1057800000E5000000E10000000000000000000053
:105790000013002700380033002D002F0034002EA6
:1057A000001200260037000F0042F943FA44FB457F
:1057B000FC000000000000000000000000000000ED
:1057C000000000E20000000000000000000000E611
:1057D00000524B514E2C005800310000002A0000AE
:1057E00000504A4F4D000000000000000049464CA8
:1057F00000000000000000000000000000000000A9
:105800000000000000000000000000000000000098
:10581000000000000001E33A0003700000036F0085
:105820000001E313000000000003B6000003CD00F8
:105830000003B5000003EA000003E9000003E200F2
:1058400000040100000000000000000000E49002DD
:105850007BE075F003A4303A1B24D3F582E4346175
:1058600012636090027BE075F003A424D4F582E417
:105870003461800D249DF582E4346112636012620C
:1058800098F583E493FF7401939007B2CFF0A3EFF0
:10589000F09007ACE0FB9007B17402F07D557F01FA
:1058A000123ECEEF640170649007ACE06462602B3E
:1058B000126298F583E493FE740193F5828E83E07F
:1058C000FF12629812630AA3E0FE12629812630A42
:1058D000EEF012629812630AA3EFF090027BE004EC
:1058E000F09007ADE0FF90027BE0C39F400BE4F037
:1058F000203A06125927125F2D900C96E070031281
:105900005FC7D238C239E490027CF02290027CE07A
:10591000C3940A5004E004F022D239E490027BF0F0
:10592000303A03125F3E221263CD9007AE12621D21
:10593000126A1B7E017F2E1262FC70098F828E8399
:10594000E054EF80161262FCFDBD010512634E802B
:105950000A1262FCFDBD020A12634EF0E054DFF051
:10596000800F1262FCFDBD030812634EF0E044207C
:10597000F0C39007AFE094649007AEE09400400855
:1059800012634EF0E04420F0126303FDBD60098F06
:10599000828E83E04440800E126303FDBD400E8F73
:1059A000828E83E054BFF0E04480F08021126303D4
:1059B000FDBD20098F828E83E04440800C1263037A
:1059C000700C8F828E83E054BFF0E0547FF012633E
:1059D000A160057FA31220B090024BE090024CF032
:1059E000126226900213E0FC900212E09001121263
:1059F000620922900170E4F0A304F0900176E4F0D3
:105A0000A304F09001787410F0A37468F074FF9010
:105A1000018AF0A3F090018CF0A3F0900180740350
:105A2000F0A374E8F090018274EAF0A37460F0903F
:105A300001847475F0A37430F090018674EAF0A3C9
:105A40007460F09001887475F0A37430F09002389F
:105A5000E0FFA3E0900172CFF0A3EFF0900212E01C
:105A6000FFA3E0900174CFF0A3EFF07D051262B1C7
:105A700090017AEEF0A3EFF07D031262B190017C09
:105A8000EEF0A3EFF090022A12636DE4FF74B92FD9
:105A9000F582E43402F583E070081263AC7420F000
:105AA0008011743B2FF582E43402F583E0FE12632B
:105AB000ACEEF0EF90616D93FE74A02FF582E434AC
:105AC00001F583EEF0EF90617D93FE74B02FF582C7
:105AD000E43401F583EEF0EF90618D93FE74C02FF6
:105AE000F582E43401F583EEF00FEFB4109F9002DD
:105AF0008AA3E09001D0A330E00AE04401F0E05432
:105B0000FDF08008E04402F0E054FEF09002141230
:105B1000637A900210126387900208126394E490F3
:105B200001D8F0A3F0221263CD9007A512623220B3
:105B30003A03025E5A126A1B9007A87401F0A3741C
:105B40002EF01262FC700712624E54EF801A12623D
:105B5000FCFFBF010712624E4410800C1262FCFF72
:105B6000BF020D12624E44101262EC54DFF080103E
:105B70001262FCFFBF030912624E1262EA4420F077
:105B80009007A8E0FEA3E030300AF5828E83E0445F
:105B900080F0800B12625554BF1262EC547FF0C348
:105BA0009007A6E094649007A5E094004009126273
:105BB0004E1262EA4420F0126303FFBF60071262D4
:105BC0004E4440800C126303FFBF400D12624E54DE
:105BD000BF1262EC4480F0801E126303FFBF2007F7
:105BE00012624E4440800A126303700B12624E54DC
:105BF000BF1262EC547FF01263A160057FA31220F4
:105C0000B090024BE090024CF0900201E0FC900258
:105C100000E0900100126245900203E0FC90020255
:105C2000E0900102126245900205E0FC900204E05F
:105C300090010412625C900207126317EFFAA3123C
:105C40006317EEFFEAFE900106EEF0A3EFF090027C
:105C500009E0FC900208E090010812625C90020BDF
:105C6000E0FC90020AE090010A12626590020DE0E9
:105C7000FC90020CE090010C12626590020FE0FCB7
:105C800090020EE090010E12626E12628612633A6A
:105C90009E5009E4900110F0A3F08018126286C3B0
:105CA000900211E0900210126280C312633B9001D7
:105CB0001012623B126286D31263D79E5006E4F044
:105CC000A3F08018126286C3900213E090021212B1
:105CD0006280C31263D790011212623B1262861275
:105CE000633A9E500AE490012CF0A3F0025D671223
:105CF00062861262D9ECC0E0EDC0E0EEC0E0EFC019
:105D0000E0126286C3900211E09002101262E1D0AC
:105D1000E0FBD0E0FAD0E0F9D0E0126329EF7F0099
:105D2000FEEFC0E0EEC0E01262861262D9ECC0E085
:105D3000EDC0E0EEC0E0EFC0E0126286C390021159
:105D4000E09FFD9002101262E3D0E0FBD0E0FAD0B9
:105D5000E0F9D0E0126329EEFDD0E0FFD0E04D90F5
:105D6000012CCFF0A3EFF0900215E0FC900214E0BC
:105D700090011412626E900217E0FC900216E090FF
:105D80000116126277900219E0FC900218E090016F
:105D90001812627790021BE0FC90021AE090011A40
:105DA00012628F90021DE0FC90021CE090011C1218
:105DB000628F90021FE0FC90021EE090011E1262B2
:105DC000A8900221E0FC900220E09001201262A83D
:105DD000900223E0FC900222E09001221262C39024
:105DE0000225E0FC900224E09001241262C390029C
:105DF00027E0FC900226E09001261262F39002292F
:105E0000E0FC900228E0900128126209900231E043
:105E1000FC900230E09001301262F3900233E0FC1B
:105E2000900232E0900132126345900235E0FC901E
:105E30000234E0900134126345900237E0FC900296
:105E400036E0FFECFE900136EEF0A3EFF012622692
:105E500090023AE0E0E490013AF0204203025F2C25
:105E60009002B6E0FFA3E0900172126356FFA3E038
:105E7000900174126356FEA3E0FF7C007D05126260
:105E8000BB90017AEE126357FEA3E0FF7C007D0316
:105E90001262BB90017CEEF0A3EFF09002AA1263B5
:105EA0006D9007A37402F0A3748AF01262CC30E004
:105EB00004D2438002C2439007A4E004F07006902D
:105EC00007A3E004F01262CCFF7C017DD09007A311
:105ED0007401F0A374D0F0E004F070069007A3E022
:105EE00004F0EF30E01B1262CC30E1057FA41220F9
:105EF000B09007A312625144011262EC54FDF0808D
:105F0000191262CC30E0057FA41220B09007A312D2
:105F1000625144021262EC54FEF090029412637AD1
:105F2000900290126387900288126394227E0190FF
:105F3000016AA3E04410F0D23A7FA10220B090029F
:105F400000AF82AE83D3EF944FEE94025005E4F09D
:105F5000A380EE7E0190016AA3E054EFF0C238C244
:105F60003A7FA10220B09007AEEEF0A3EFF0E490EC
:105F700007B0F0A3F090094AE04401F09007B0E0C8
:105F8000703DA3E0C3940350369007AEE0A3E01247
:105F900063B7E4FB7D557F01123A24EF6019900747
:105FA000AEE01263B7FB7D55FF123A24EF60089014
:105FB00007B07401F080C59007B1E004F080BD9097
:105FC000094AE054FEF022900200E0B40110A3E080
:105FD000B4000BE4900C95F0900C96048023900292
:105FE00000E064037004A3E06435600C900200E0FC
:105FF000B40315A3E0B46810900C957401F0900CF4
:1060000096F0E4FFFE125F6622CEEBCE9007ABEF78
:10601000F0E4A3F0FF9007A7E0FCEFC39C5021A39E
:10602000E0FBA3E0FAA3E0F98F82758300127519F3
:10603000FC74002FF582E43404F583ECF00F80D576
:106040009007ABE0FFCBEECB9007A7E09007B5F051
:10605000123A24EF60069007AC7401F09007ACE0B0
:10606000FF22E4900785F0A3F0A3F0EF700A9009F7
:10607000B0E004F01263C222EFB4010F9009B1E066
:1060800004F0900C02E0900C92F022EFB4020F901A
:106090000C03E0900C91F09009B2E004F022900C17
:1060A00091E02402FDE433FCEF6D7001EC7046904A
:1060B00009B3E004F0900C90E0FD900C91E09007A3
:1060C000A7F07A0C7901A37401F0A3740CF0A37407
:1060D00001F0900C92E0FB7F01126009EF600690E6
:1060E00007867401F0900786E0900C0060047481CC
:1060F000F0227480F022E4900788F0A3F0EF70049F
:106100001263C222EFB40109900C02E0900C92F0ED
:1061100022EF64027046900C00F0900C03E0900CAB
:1061200091F0900C90E0FD900C92E0FB900C91E0CF
:106130009007B1F07E0CA3740CF0A37404F07F01FF
:10614000123ECEEF60069007897401F0900789E057
:10615000900C0060047482F0227480F02256697200
:106160007475616C20534253313233342056697256
:106170007475616C20534253353637382056697236
:106180007475616C2042617474657279205669720D
:106190007475616C2042617474657279200002002C
:1061A0000202020402040602060802080A020A0C9D
:1061B000020C0E020E100210120212140214160229
:1061C0001618021A2802281E022A20022C1C022E4F
:1061D0002E0238000200020202040204060206082F
:1061E00002080A020A0C020C0E020E100210120221
:1061F0001214021416021618021A2802281E022A65
:1062000020022C1C022E2E0238FFECFEEEF0A3EF33
:10621000F090022BE0FC90022AE090012AFFECFEB5
:10622000EEF0A3EFF022900239E0FC900238E0900B
:106230000138FFECFEEEF0A3EFF0229EFFECFEEE45
:10624000F0A3EFF022FFECFEEEF0A3EFF0229007B8
:10625000A8E0FEA3E0FFF5828E83E022FFECFEEED5
:10626000F0A3EFF022FFECFEEEF0A3EFF022FFEC44
:10627000FEEEF0A3EFF022FFECFEEEF0A3EFF02233
:106280009FFFE09EEFFC90016EE0FEA3E0FF22FF87
:10629000ECFEEEF0A3EFF02290027BE075F003A499
:1062A000249EF582E4346122FFECFEEEF0A3EFF0D1
:1062B00022900212E0FEA3E0FF7C001275587D647C
:1062C00002756AFFECFEEEF0A3EFF0229007A3E068
:1062D000FEA3E0F5828E83E022C3900213E09002D9
:1062E000129FFDE09EFCE402745F4410F08F828EEA
:1062F00083E022FFECFEEEF0A3EFF02290024BE0F1
:1063000054032290024BE0546022F583E493FC7422
:106310000193F5828C8322E02454FF900206E0343E
:10632000F5FE7C007D0A02756AF81273BDE4FBFA83
:1063300079C878421272B4027498D3900211E09F27
:10634000900210E022FFECFEEEF0A3EFF0228F822D
:106350008E83E0441022CFF0A3EFF0900292E0226F
:10636000F583E4939007ACF0A37412F022E0FFA34E
:10637000E090017ECFF0A3EFF022E0FFA3E09001D8
:10638000D2CFF0A3EFF022E0FFA3E09001D4CFF052
:10639000A3EFF022E0FFA3E09001D6CFF0A3EFF04F
:1063A0002290024BE0FF90024CE06F2274902FF598
:1063B00082E43401F58322900400F09007B5740163
:1063C000F022900C01E0C313900C90F02290012D6C
:1063D000E0FC90012CE022900213E09F900212E07A
:1063E00022E49007A2F0A3F09007A2E0FFC3940874
:1063F0005041A3E0C39402503AEF25E024B0F58267
:10640000E4346AF583E4939007A4F0EF25E024AF29
:10641000F582E4346A126B2B7407F074A4126B5982
:10642000123DABEF60059007A280039007A3E00444
:10643000F080B5026587E49007A9F0A3F07F2112F0
:1064400054DE9007A9E0FFC394085041A3E0C39431
:1064500002503AEF25E024E0F582E4346AF583E463
:10646000939007ABF0EF25E024DFF582E4346A1265
:106470006B2B7407F074AB126B59123DABEF6005D8
:106480009007A980039007AAE004F080B522E49069
:1064900007A9F0A3F09007A9E0FFC394085041A317
:1064A000E0C39402503AEF25E024C0F582E4346A58
:1064B000F583E4939007ABF0EF25E024BFF582E489
:1064C000346A126B2B7407F074AB126B60123DAB25
:1064D000EF60059007A980039007AAE004F080B55B
:1064E00022E49007A9F0A3F09007A9E0FFC3940865
:1064F0005041A3E0C39402503AEF25E024D0F58246
:10650000E4346AF583E4939007ABF0EF25E024CF01
:10651000F582E4346A126B2B7407F074AB126B6073
:10652000123DABEF60059007A980039007AAE00435
:10653000F080B522E49007A9F0A3F09007A9E0FF4E
:10654000C394085041A3E0C39402503AEF25E024DD
:10655000F0F582E4346AF583E4939007ABF0EF251D
:10656000E024EFF582E4346A126B2B7407F074AB0D
:10657000126BDD123DABEF60059007A98003900719
:10658000AAE004F080B522901115E04420F022E446
:106590009007A3F0A3F09007A3E0FFC3940B506013
:1065A000A3E0C394025059EF25E025E024FFF582D3
:1065B000E4346AF583E493FEEF126B93740193FA6B
:1065C000740293FD9007B2EAF0ED126B50CBEECB64
:1065D0007D6BFF123ECEEF9007A36008E004F0E46D
:1065E000A3F080B2E0126B93E493FB740193FA740E
:1065F0000293F9E41275469007A4E004F002659650
:106600009007A4E07005D23F7F0122C23F7F0022A5
:106610001266ABEF6005E4FF1266C812677A90025B
:106620006EE030E303126949126B6764036006127F
:10663000685B126641306B08126587126641C26B57
:1066400022900036E0640170069007B104800C903F
:10665000024BE030E3279007B17401F0A37407F018
:1066600074AB126B3D123ECE9007ABE054CFF0E01E
:10667000900400F0126B7C126B3E023DAB90024B1B
:10668000E054037002C23F22126B52A3126B381205
:106690003ECE90078AE04440F0126B30126B381205
:1066A0003DABEF6003D23F22C23F22126B52A37474
:1066B00007F074A8126B73123ECE9007A8E030E783
:1066C000047F0180027F00229007A8EFF0E4A3F08E
:1066D0009007B104F0A3126B6E123ECE9007A8E0B3
:1066E0006007A3E04480F080079007A9E0547FF0A2
:1066F000126B30126B6E123DAB22E49007A9F07F53
:10670000101254DE203009900035E0700302676DEE
:106710007F111254DE126B6770367F12126772445B
:1067200020F090024DE0C3945050467F131254DE87
:1067300090024DE004F0126B52A3126BA1123ECEF8
:106740009007A9E04480F0126B30126BA1023DABC0
:10675000126B67FFBF01097F1412677254DF800B51
:106760007F151254DE901605E04420F0E490024DAF
:10677000F0221254DE901605E022E49007A8F09073
:1067800007B104F0A37407F0A374A8F07B087D6B35
:106790007F01123ECE90026EE054F8F0E0FF9007C9
:1067A000A8E0FEC413135403FDEF4D90026EF0E019
:1067B000FFEE5404FEEF4EF0E054CFF0E0FF900700
:1067C000A8E05430FEEF4E90026EF09001E0E064DD
:1067D00001600330061C901603E030E3047F018063
:1067E000027F00BF010C7F231254DE90026EE04452
:1067F00003F0126BD26063126BD27005126B67707C
:10680000599007A8E030E20D7F241254DE1225C310
:106810001266FA80369007A8E020E2367F251254EF
:10682000DE1225DB126B67FFBF030D7F261254DEDD
:10683000901605E054DF80127F271254DE90026E1E
:10684000E054F8F0901605E04420F090026EE04429
:1068500008F090026EE090026FF022900107E0FCD9
:10686000900106E0FFECFE9007A8EEF0EF126B50EF
:10687000A3126BAF123ECE126B52A3126BBD123E2F
:10688000CE126B52A37407F0A374AA126B3E123E91
:10689000CEC3126B49500D126B8CF0A3E054FC4434
:1068A000D6026920D39007A9E09400126B49400DED
:1068B000A3126B465007126B8C445C8017D3900771
:1068C000A9126B464017A3E09432126B49500E1286
:1068D0006B8C4460F0A3E054FC44D68021D3900735
:1068E000A9E09432126B494021A3E09437126B491E
:1068F0005018126B8C4460F0A3E054FC449AF09062
:1069000007AAE054CF4410F0801ED39007A9E0946A
:1069100037126B494012126B8CF0A3E054FC449A7E
:10692000F09007AAE054CFF0126B30126BAF123D1B
:10693000AB126B30126BBD123DAB126B307407F0B3
:10694000A374AA126B3E023DAB126B679007A8F0CE
:10695000E0B4030B126436126BCB4460F0802B90D2
:1069600007A8E0B4020B12648E126BCB4440F08097
:10697000199007A8E0B4010B1264E1126BCB44201C
:10698000F08007126534126BCBF090026EE054F782
:10699000F090026FE054F7F02290078BEBF0A3EA3F
:1069A000F0A3E9F0E4A3F0A3F090078EE0FFC39416
:1069B00001505CA3E0C394025055EF75F002A4FFB0
:1069C00090078BE0FBA3E0FAA3E02FF9EA35F0FA99
:1069D000900001127519900790F090078BA3E0FAD0
:1069E000A3E0F9A3E075F002A4F58285F0831275A7
:1069F00019126B2F7407F07490126BDD123DABEF20
:106A0000600590078E800390078FE004F0809A90D5
:106A1000078FE070037F01227F0022900258E0FF81
:106A200020E40920E506126BE4F08025EF30E40550
:106A300020E5028007EF20E40B30E508126BE44408
:106A400001F0800DEF30E40930E506126BE44403F9
:106A5000F090020AE090024B30E106E04408F0803A
:106A600004E054F7F0900259E030E00790024BE068
:106A70004408F022900271E0FB126B527E04A37472
:106A800004F0A37480F07D6B7F01123ECE900480F1
:106A9000E0900272F022900271E0FFA3E090040007
:106AA000F0CBEFCB126B7CF07D6B7F01023DAB0036
:106AB00035011B0260032104D605820603074B0043
:106AC00036011B0260032104D605820603074B0032
:106AD00032011B0200032104D605820603074B0086
:106AE00035012B0260031104D605820603074B0013
:106AF00032011B0260032104D605820603074B0006
:106B00000102500101025102010252030102530429
:106B100001025405010255060102560701025708F9
:106B2000010258090102590A01025AF583E493FB54
:106B30009007B17401F0A3227407F0748AA3F07B6C
:106B4000017D6B7F0122E0940C9007A8E094002265
:106B5000A3F09007B17401F022A3F07D6B7F0122B6
:106B6000A3F07D6B7F012290026EE0540322740734
:106B7000F074A9A3F0E4FB7D6B7F01229007B17450
:106B800001F07E04A37404F0A37400229007ABE02C
:106B900054FC2225E025E02400F582E4346BF583E3
:106BA000227407F0A374A9F07B077D6B7F01227428
:106BB00007F0A374ABF07B027D6B7F01227407F0BA
:106BC000A374ACF07B047D6B7F012290024BE054F8
:106BD0009F2290026EE0FF90026FE06F22A3F07D93
:106BE0006B7F012290024BE054FC22E4FF90000EE8
:106BF0007400F0A3747DF090000EE0FCA3E02FF58C
:106C000082E43CF583E4F00FEFB405EB2290190029
:106C10007403F09019017401F09019027415F0904A
:106C200019037480F0901904F0227F441254DEE4BA
:106C3000FF901904E030E716901919E0900800F071
:106C4000901918E0900801F0901904E0F022CEEFBE
:106C5000CE0FEED3941440D922EF700D901A01E0BC
:106C60004401F0901A02EDF022EF700C901A01E04E
:106C70004402F0901A03EDF022EF700D901A01E03B
:106C800054FEF0E4901A02F022EF700C901A01E02A
:106C900054FDF0E4901A03F02290180B7401F09068
:106CA000180174C8F09018007401F0E490180CF00A
:106CB00090180DF0901801E0901802F022900AA1AF
:106CC000E030E30D901607E054FEF0900AB2740134
:106CD000F022900791126F9E900791E07045A3E01B
:106CE000C39403503E9007947443F0900793126F3F
:106CF0005E12417BEF6024126F709007947449F02C
:106D0000E4900793F07449126F6212417BEF60C800
:106D1000126F819007917401F080BD900792E0049A
:106D2000F080B5900791E06010126CBD900AB4E05D
:106D30004402F0E0547FF08003126F92900791E0DC
:106D4000FF22900795126F9E900795E0C3942950FB
:106D500057A3E0C394025050900795E0FF25E0252B
:106D6000E024BAF582E4346EF583E493FC74019375
:106D7000FDEF25E025E024BCF582E4346EF583E4E4
:106D800093FA740193FBE4FF126DDAEF6008900749
:106D900095E004F080B2900796E0FF04F0EFD39402
:106DA0000340A5126F9280A09007987443F090075B
:106DB00097126F5E12417BEF601F126F7090079801
:106DC0007449F0E4900797F09007507449126F658A
:106DD00012417BEF6003126F8122900799ECF0A3C0
:106DE000EDF090079BEAF0A3EBF090079DEFF0E445
:106DF000A3126F9F900799E0A3E09007A1F090077E
:106E000099E09007A0F090079BE0A3E0900401F0C8
:106E100090079BE0900400F090079BE0A3E0F490C3
:106E20000480F0126FA7900749F0A37402F07D2C44
:106E3000124089EF6059126FA7900750F0A37402B7
:106E4000F07D2C12417BEF60469009F6E004F09053
:106E50000480E0FF900400E06F7034900481E0FF54
:106E6000900401E06F7028900480E0A3E02400FF0C
:106E7000900799E0A3E02400F582E4340AF583EF5B
:106E8000F09009F8E004F090079E7401F0800F90F4
:106E9000079FE004F0E0C394025003026DF49007F2
:106EA0009FE0900AB4700AE04402F0E0547FF08062
:106EB00003126F9590079EE0FF2200000000004043
:106EC0000030000A0000004100FF004200FF0008FF
:106ED0000002004E000000510A1F005207FF00533D
:106EE00007FF0003003200550096005600FA00200C
:106EF00000050021000500220005002300050024F4
:106F000000050025000500260005002700050038C3
:106F10000006003000720031006600320066003367
:106F20000063003400610035006A0036007B0037E2
:106F30000119005F00010060004B0061004B00621E
:106F4000004B0063004B0064004B0065004B006683
:106F5000004B0067004B0040803000010000E4F06F
:106F60007443900750F0A37402F0E4FB7D2CFF22E1
:106F7000900480E0900AA0F0900481E0900AA1F0D3
:106F800022900480E0900AA2F0900481E0900AA38D
:106F9000F022900AB4E054FDF0E04480F022E4F0E6
:106FA000A3F0A3F0A3F02290079DE0FF9007A0E0DC
:106FB000FBA3E022901603E030E7047F0180027F0C
:106FC00000EF64016010901603E030E7047F018059
:106FD000027F00EF60DE221272959007A3EEF0A30D
:106FE000EFF0900214E0FEA3E0FFC3E49FFFE49EF5
:106FF0009007A5F0A3EFF0E4FD203A030270AE90F5
:10700000094BE0B40209E4F0901606E054FBF0905E
:10701000016EE0FEA3E0FFC3900211E09F9002101A
:10702000E09E5013900C95E0600D90003BE07007DF
:10703000901606E054FBF0C39007A4E0940A900772
:10704000A3E094005006ED4401FD8000D39007A614
:10705000E094AC9007A5E0940D4013900214E0304A
:10706000E70CED4401FD90003E7401F0803090008B
:107070003EE0602AC39007A6E094C49007A5E09480
:10708000095007900214E020E707900214E020E77F
:1070900007E490003EF08006ED4401FD8000ED9095
:1070A0001606B40105E04420F022E054DFF022305F
:1070B0004E3F1272ADBF011078B5E6901604B401D0
:1070C00002801712727E802978B4E6547F640470BF
:1070D0002078B5E6B4010B901604E04440F0E4F6E5
:1070E000800F12727B78B6E606D3940440031272C6
:1070F00087304B5B1272ADBF031078B5E690160473
:10710000B40102803312727E80451272ADBF021646
:1071100078B5E6C39409901604E04002801B54BF82
:10712000F078B506802978B4E6547F64057020783D
:10713000B5E6B4010B901604E04440F0E4F6800F8D
:1071400012727B78B6E606D39404400312728778F5
:10715000B4E6B48009901604E04440F0800C78B4A2
:10716000E67007901604E054BFF078B8E6B48008E3
:10717000901604E04480F02278B8E6700790160478
:10718000E0547FF0221272959007A3EEF0A3EFF087
:107190009007A57402F0A37414F0900033E030E07F
:1071A0000678B81272A222900033E030E10778B876
:1071B000E64480800C900033E030E20A78B8E65470
:1071C0007FF678B48065203A09E478B8F678B4762A
:1071D0000122303027C39007A4E0945F9007A3E01A
:1071E00094005011900214E07002A3E078B8600E91
:1071F0001272A2801378B8E64480800578B8E6540D
:107200007FF678B4E6547FF6C39007A4E094059027
:1072100007A3E094005028C2049001E0E0B40110FC
:1072200020300D78B4206D03760122E6547FF622DB
:1072300078B4E630E014E654056405600D8007D2AA
:107240000420300678B4E65480F622D207C26C904F
:1072500009E0E004F0901606E04404F09001E374C5
:1072600001F07F0A1245FA901601E054F7F07FF41E
:107270001245FA901601E04408F022901604E054FA
:10728000BFF078B5760122E478B5F678B6F678B432
:10729000E65480F62290012DE0FC90012CE0FFECFA
:1072A000FE22E6547FF678B4E64480F62278B4E60F
:1072B000547FFF22EC4D6011E8497017ED33EC3339
:1072C00004600DE4FCFFFEFD22E933E8330470F8AE
